:100000001BC023C322C321C320C31FC31EC31DC3E0
:100010001CC31BC31AC319C318C317C316C315C304
:1000200014C313C312C327C03FC057C06FC087C0DB
:100030009FC0B7C0CFC0E7C011241FBECFE5D4E03A
:0C004000DEBFCDBF9BD100C0F894FFCF05
:10004C000001020304050607080003060104070269
:08005C00050800040802040677
:1000640090E08930910508F0E4C0FC01ED5EFF4F9B
:100074000994623039F482B3816082BB82B38D7F8C
:1000840082BB0895613039F482B38E7F82BB82B320
:10009400826082BB089582B38E7F82BB82B38D7FE0
:1000A40082BB0895623039F482B3846082BB82B328
:1000B400877F82BB0895613039F482B38B7F82BB22
:1000C40082B3886082BB089582B38B7F82BB82B384
:1000D400877F82BB0895623039F482B3806182BB2A
:1000E40088B38F7B88BB0895613039F482B38F7EE7
:1000F40082BB88B3806488BB089582B38F7E82BB41
:1001040088B38F7B88BB0895623039F488B38068E4
:1001140088BB82B38F7D82BB0895613039F488B384
:100124008F7788BB82B3806282BB089588B38F7750
:1001340088BB82B38F7D82BB0895623039F482B369
:10014400806482BB82B38F7782BB0895613039F4B7
:1001540082B38F7B82BB82B3806882BB089582B3F3
:100164008F7B82BB82B38F7782BB0895623039F470
:1001740088B3816088BB88B38D7F88BB0895613064
:1001840039F488B38E7F88BB88B3826088BB0895B6
:1001940088B38E7F88BB88B38D7F88BB0895623017
:1001A40039F488B3846088BB85B38D7F85BB08959B
:1001B400613039F488B38B7F88BB85B3826085BB9B
:1001C400089588B38B7F88BB85B38D7F85BB0895E5
:1001D400623039F485B3846085BB85B3877F85BB82
:1001E4000895613039F485B38B7F85BB85B388600E
:1001F40085BB089585B38B7F85BB85B3877F85BB1E
:100204000895623039F485B3806185BB85B38F7DF1
:1002140085BB0895613039F485B38F7E85BB85B382
:10022400806285BB089585B38F7E85BB85B38F7D42
:0402340085BB0895E9
:10023800AF92BF92CF92DF92EF92FF920F931F93EC
:10024800CF93DF93EC01B42E80E005C0FE01E80FE8
:10025800F11D10828F5F8930C8F370E0CB01880FE1
:10026800991F860F971F9C01092E000C440B245BD5
:100278003F4F4F4FF901249147FD20817E01E20E47
:10028800F11CF701B0829C012F5F3F4F032E000C39
:10029800440B245B3F4F4F4FF901249147FD2081C8
:1002A8008E01020F111DF801B0820296092E000C72
:1002B800AA0B845B9F4FAF4FFC018491A7FD8081FF
:1002C8006E01C80ED11CF601B082CE018FD1FFE9B4
:1002D80026E881E0F15020408040E1F700C00000AE
:1002E800A12C26C0FE01E80FF11D10828F5F01C00E
:1002F80080E08930B8F3CE0179D19FE9E6E8F1E0F2
:100308009150E040F040E1F700C00000F701B082F2
:10031800F801B082F601B082CE0168D1FFE926E883
:1003280081E0F15020408040E1F700C00000A39434
:1003380091E09A15E8F680E005C0FE01E80FF11D8E
:1003480010828F5F8930C8F3CE0150D1EFE9F6E80B
:1003580021E0E150F0402040E1F700C00000DF91CB
:10036800CF911F910F91FF90EF90DF90CF90BF90AA
:04037800AF900895A5
:10037C00CF93DF93CDB7DEB729970FB6F894DEBFD6
:10038C000FBECDBF80E008C0E1E0F0E0EC0FFD1F38
:10039C00E80FF11D10828F5F8930B0F349D18FEFD8
:1003AC0087BB9EEF94BB81BB01E00F2EFAE0FF2EC2
:1003BC00F02D08C081EE94E00197F1F700C0000029
:1003CC0001C0F12E2DD1883C9105A0F389EF90E06E
:1003DC000197F1F700C000001AD1182FF81689F315
:1003EC0090E0E1E0F0E0EC0FFD1FE80FF91F208139
:1003FC00211131C000FF09C0E1E0F0E0EC0FFD1F5E
:10040C00E80FF91F21E0208308C0E1E0F0E0EC0FD9
:10041C00FD1FE80FF91F22E02083CE010196E4D0E6
:10042C00CE01019624D0813079F409C0E1E0F0E0EE
:10043C00EC0FFD1FE80FF11D10828F5F01C080E0F3
:10044C008930A0F300E010E0093028F0CE010196CD
:10045C00A3D000E010E00F5F9FE926E881E0915007
:0E046C0020408040E1F700C00000F12EABCF31
:10047A0060E04CC0A62FB0E09D01220F331F2A0F67
:10048A003B1F032E000C440B245B3F4F4F4FF901D7
:10049A00249147FD2081FC01E20FF11D5081552373
:1004AA00A1F19D01220F331F2A0F3B1F2F5F3F4FE0
:1004BA00032E000C440B245B3F4F4F4FF90124914C
:1004CA0047FD2081FC01E20FF11D20812223E9F082
:1004DA00E1F09D01220F331FA20FB31F12969D0157
:1004EA00BB0F440B245B3F4F4F4FF901249147FD4B
:1004FA002081FC01E20FF11D2081222331F05523D6
:10050A0021F0452F94DE81E008956F5F693008F489
:06051A00B1CF80E008955E
:100520009C012C5132402932310550F12E563109AF
:100530002F31310538F12A5A31092932310520F19C
:100540002E533E4F2932310508F1225331092F3104
:100550003105F0F0265431092F313105D8F02258F9
:1005600031092A313105C0F02258310925313105D0
:10057000A8F0865B93408B34910590F488E0089551
:1005800080E0089581E0089582E0089583E0089571
:1005900084E0089585E0089586E0089587E0089551
:0405A0008AE0089550
:1005A4000F931F93CF938C01C1E01CC0EC2FF0E09C
:1005B4003197E00FF11F10828BEAC89F812D11241F
:1005C4008695982F990F890FC8130BC0C80110D0B6
:1005D4002FE986E891E0215080409040E1F700C087
:1005E4000000CF5FCA3010F3CF911F910F9108958F
:1005F4000F931F93CF938C01C0E007C0F801EC0F59
:10060400F11D60818C2F2CDDCF5FC930B8F3CF9101
:060614001F910F910895F3
:10061A0086B1806486B93699FECF84B195B17BDF05
:02062A00089531
:10062C0086B1806486B93699FECF84B195B10895B0
:0E063C0086B1866886B987B1806487B9089553
:02064A00DACC08
:00000001FF
